{
  "_format": "hh-sol-artifact-1",
  "contractName": "mediQR",
  "sourceName": "contracts/mediQR.sol",
  "abi": [
    {
      "anonymous": false,
      "inputs": [
        {
          "indexed": false,
          "internalType": "string",
          "name": "batchNo",
          "type": "string"
        },
        {
          "indexed": true,
          "internalType": "address",
          "name": "uploader",
          "type": "address"
        },
        {
          "indexed": false,
          "internalType": "string",
          "name": "qrCID",
          "type": "string"
        },
        {
          "indexed": false,
          "internalType": "uint256",
          "name": "timestamp",
          "type": "uint256"
        }
      ],
      "name": "MedicineAdded",
      "type": "event"
    },
    {
      "inputs": [
        {
          "internalType": "string",
          "name": "_medname",
          "type": "string"
        },
        {
          "internalType": "string",
          "name": "_batchNo",
          "type": "string"
        },
        {
          "internalType": "string",
          "name": "_expiryDate",
          "type": "string"
        },
        {
          "internalType": "string",
          "name": "_qrCID",
          "type": "string"
        }
      ],
      "name": "addMedicine",
      "outputs": [],
      "stateMutability": "nonpayable",
      "type": "function"
    },
    {
      "inputs": [
        {
          "internalType": "string",
          "name": "_batchNo",
          "type": "string"
        }
      ],
      "name": "getMedicine",
      "outputs": [
        {
          "internalType": "string",
          "name": "name",
          "type": "string"
        },
        {
          "internalType": "string",
          "name": "expiryDate",
          "type": "string"
        },
        {
          "internalType": "string",
          "name": "qrCID",
          "type": "string"
        },
        {
          "internalType": "address",
          "name": "uploader",
          "type": "address"
        }
      ],
      "stateMutability": "view",
      "type": "function"
    },
    {
      "inputs": [
        {
          "internalType": "string",
          "name": "_batchNo",
          "type": "string"
        }
      ],
      "name": "getQRLink",
      "outputs": [
        {
          "internalType": "string",
          "name": "",
          "type": "string"
        }
      ],
      "stateMutability": "view",
      "type": "function"
    }
  ],
  "bytecode": "0x608060405234801561001057600080fd5b50611256806100206000396000f3fe608060405234801561001057600080fd5b50600436106100415760003560e01c8063020d07a41461004657806390c634771461006257806393c38a5114610095575b600080fd5b610060600480360381019061005b9190610a85565b6100c5565b005b61007c60048036038101906100779190610b5c565b6102cd565b60405161008c9493929190610c65565b60405180910390f35b6100af60048036038101906100aa9190610b5c565b61060a565b6040516100bc9190610cbf565b60405180910390f35b6000835111610109576040517f08c379a000000000000000000000000000000000000000000000000000000000815260040161010090610d2d565b60405180910390fd5b6000808460405161011a9190610d89565b9081526020016040518091039020600101805461013690610dcf565b905014610178576040517f08c379a000000000000000000000000000000000000000000000000000000000815260040161016f90610e4c565b60405180910390fd5b6040518060a001604052808581526020018481526020018381526020018281526020013373ffffffffffffffffffffffffffffffffffffffff168152506000846040516101c59190610d89565b908152602001604051809103902060008201518160000190816101e89190611022565b5060208201518160010190816101fe9190611022565b5060408201518160020190816102149190611022565b50606082015181600301908161022a9190611022565b5060808201518160040160006101000a81548173ffffffffffffffffffffffffffffffffffffffff021916908373ffffffffffffffffffffffffffffffffffffffff1602179055509050503373ffffffffffffffffffffffffffffffffffffffff167f7d80b89b62bcf60b7bffd2350bafe73d40fd546bd295c0e46bab8765f1bef2568483426040516102bf93929190611103565b60405180910390a250505050565b60608060606000806000866040516102e59190610d89565b90815260200160405180910390206040518060a001604052908160008201805461030e90610dcf565b80601f016020809104026020016040519081016040528092919081815260200182805461033a90610dcf565b80156103875780601f1061035c57610100808354040283529160200191610387565b820191906000526020600020905b81548152906001019060200180831161036a57829003601f168201915b505050505081526020016001820180546103a090610dcf565b80601f01602080910402602001604051908101604052809291908181526020018280546103cc90610dcf565b80156104195780601f106103ee57610100808354040283529160200191610419565b820191906000526020600020905b8154815290600101906020018083116103fc57829003601f168201915b5050505050815260200160028201805461043290610dcf565b80601f016020809104026020016040519081016040528092919081815260200182805461045e90610dcf565b80156104ab5780601f10610480576101008083540402835291602001916104ab565b820191906000526020600020905b81548152906001019060200180831161048e57829003601f168201915b505050505081526020016003820180546104c490610dcf565b80601f01602080910402602001604051908101604052809291908181526020018280546104f090610dcf565b801561053d5780601f106105125761010080835404028352916020019161053d565b820191906000526020600020905b81548152906001019060200180831161052057829003601f168201915b505050505081526020016004820160009054906101000a900473ffffffffffffffffffffffffffffffffffffffff1673ffffffffffffffffffffffffffffffffffffffff1673ffffffffffffffffffffffffffffffffffffffff168152505090506000816020015151036105e6576040517f08c379a00000000000000000000000000000000000000000000000000000000081526004016105dd90611194565b60405180910390fd5b80600001518160400151826060015183608001519450945094509450509193509193565b60606000808360405161061d9190610d89565b90815260200160405180910390206040518060a001604052908160008201805461064690610dcf565b80601f016020809104026020016040519081016040528092919081815260200182805461067290610dcf565b80156106bf5780601f10610694576101008083540402835291602001916106bf565b820191906000526020600020905b8154815290600101906020018083116106a257829003601f168201915b505050505081526020016001820180546106d890610dcf565b80601f016020809104026020016040519081016040528092919081815260200182805461070490610dcf565b80156107515780601f1061072657610100808354040283529160200191610751565b820191906000526020600020905b81548152906001019060200180831161073457829003601f168201915b5050505050815260200160028201805461076a90610dcf565b80601f016020809104026020016040519081016040528092919081815260200182805461079690610dcf565b80156107e35780601f106107b8576101008083540402835291602001916107e3565b820191906000526020600020905b8154815290600101906020018083116107c657829003601f168201915b505050505081526020016003820180546107fc90610dcf565b80601f016020809104026020016040519081016040528092919081815260200182805461082890610dcf565b80156108755780601f1061084a57610100808354040283529160200191610875565b820191906000526020600020905b81548152906001019060200180831161085857829003601f168201915b505050505081526020016004820160009054906101000a900473ffffffffffffffffffffffffffffffffffffffff1673ffffffffffffffffffffffffffffffffffffffff1673ffffffffffffffffffffffffffffffffffffffff1681525050905060008160200151510361091e576040517f08c379a000000000000000000000000000000000000000000000000000000000815260040161091590611200565b60405180910390fd5b8060600151915050919050565b6000604051905090565b600080fd5b600080fd5b600080fd5b600080fd5b6000601f19601f8301169050919050565b7f4e487b7100000000000000000000000000000000000000000000000000000000600052604160045260246000fd5b61099282610949565b810181811067ffffffffffffffff821117156109b1576109b061095a565b5b80604052505050565b60006109c461092b565b90506109d08282610989565b919050565b600067ffffffffffffffff8211156109f0576109ef61095a565b5b6109f982610949565b9050602081019050919050565b82818337600083830152505050565b6000610a28610a23846109d5565b6109ba565b905082815260208101848484011115610a4457610a43610944565b5b610a4f848285610a06565b509392505050565b600082601f830112610a6c57610a6b61093f565b5b8135610a7c848260208601610a15565b91505092915050565b60008060008060808587031215610a9f57610a9e610935565b5b600085013567ffffffffffffffff811115610abd57610abc61093a565b5b610ac987828801610a57565b945050602085013567ffffffffffffffff811115610aea57610ae961093a565b5b610af687828801610a57565b935050604085013567ffffffffffffffff811115610b1757610b1661093a565b5b610b2387828801610a57565b925050606085013567ffffffffffffffff811115610b4457610b4361093a565b5b610b5087828801610a57565b91505092959194509250565b600060208284031215610b7257610b71610935565b5b600082013567ffffffffffffffff811115610b9057610b8f61093a565b5b610b9c84828501610a57565b91505092915050565b600081519050919050565b600082825260208201905092915050565b60005b83811015610bdf578082015181840152602081019050610bc4565b60008484015250505050565b6000610bf682610ba5565b610c008185610bb0565b9350610c10818560208601610bc1565b610c1981610949565b840191505092915050565b600073ffffffffffffffffffffffffffffffffffffffff82169050919050565b6000610c4f82610c24565b9050919050565b610c5f81610c44565b82525050565b60006080820190508181036000830152610c7f8187610beb565b90508181036020830152610c938186610beb565b90508181036040830152610ca78185610beb565b9050610cb66060830184610c56565b95945050505050565b60006020820190508181036000830152610cd98184610beb565b905092915050565b7f4261746368206e756d6265722072657175697265640000000000000000000000600082015250565b6000610d17601583610bb0565b9150610d2282610ce1565b602082019050919050565b60006020820190508181036000830152610d4681610d0a565b9050919050565b600081905092915050565b6000610d6382610ba5565b610d6d8185610d4d565b9350610d7d818560208601610bc1565b80840191505092915050565b6000610d958284610d58565b915081905092915050565b7f4e487b7100000000000000000000000000000000000000000000000000000000600052602260045260246000fd5b60006002820490506001821680610de757607f821691505b602082108103610dfa57610df9610da0565b5b50919050565b7f426174636820616c726561647920657869737473000000000000000000000000600082015250565b6000610e36601483610bb0565b9150610e4182610e00565b602082019050919050565b60006020820190508181036000830152610e6581610e29565b9050919050565b60008190508160005260206000209050919050565b60006020601f8301049050919050565b600082821b905092915050565b600060088302610ece7fffffffffffffffffffffffffffffffffffffffffffffffffffffffffffffffff82610e91565b610ed88683610e91565b95508019841693508086168417925050509392505050565b6000819050919050565b6000819050919050565b6000610f1f610f1a610f1584610ef0565b610efa565b610ef0565b9050919050565b6000819050919050565b610f3983610f04565b610f4d610f4582610f26565b848454610e9e565b825550505050565b600090565b610f62610f55565b610f6d818484610f30565b505050565b5b81811015610f9157610f86600082610f5a565b600181019050610f73565b5050565b601f821115610fd657610fa781610e6c565b610fb084610e81565b81016020851015610fbf578190505b610fd3610fcb85610e81565b830182610f72565b50505b505050565b600082821c905092915050565b6000610ff960001984600802610fdb565b1980831691505092915050565b60006110128383610fe8565b9150826002028217905092915050565b61102b82610ba5565b67ffffffffffffffff8111156110445761104361095a565b5b61104e8254610dcf565b611059828285610f95565b600060209050601f83116001811461108c576000841561107a578287015190505b6110848582611006565b8655506110ec565b601f19841661109a86610e6c565b60005b828110156110c25784890151825560018201915060208501945060208101905061109d565b868310156110df57848901516110db601f891682610fe8565b8355505b6001600288020188555050505b505050505050565b6110fd81610ef0565b82525050565b6000606082019050818103600083015261111d8186610beb565b905081810360208301526111318185610beb565b905061114060408301846110f4565b949350505050565b7f4d65646963696e65206e6f7420666f756e640000000000000000000000000000600082015250565b600061117e601283610bb0565b915061118982611148565b602082019050919050565b600060208201905081810360008301526111ad81611171565b9050919050565b7f4261746368206e6f7420666f756e640000000000000000000000000000000000600082015250565b60006111ea600f83610bb0565b91506111f5826111b4565b602082019050919050565b60006020820190508181036000830152611219816111dd565b905091905056fea2646970667358221220cce01b40aa6ce6e9d9debd7d8b3d4ec26c689f34c2b4f802901c16b24acf223264736f6c63430008140033",
  "linkReferences": {},
  "deployedLinkReferences": {}
}